:100000000C945F000C9487000C9487000C9487007C
:100010000C9487000C9487000C9487000C94B5070F
:100020000C9487000C9487000C9487000C94870034
:100030000C9487000C9487000C9487000C94870024
:100040000C946B070C9487000C945D080C94370893
:100050000C9487000C9487000C9487000C94870004
:100060000C948F080C948700000000080002010027
:100070000003040700000000000000000200000070
:1000800000250028002B0000000000240027002A83
:100090000004040404040404040202020202020331
:1000A000030303030301020408102040800102043B
:1000B00008102001020408102000AE094B0C112486
:1000C0001FBECFEFD8E0DEBFCDBF23E0A6E8B1E092
:1000D00001C01D92AE31B207E1F711E0A0E0B1E03E
:1000E000E4EBFDE102C005900D92A638B107D9F707
:1000F00010E0CEE5D0E004C02197FE010E94CC0CB8
:10010000CD35D107C9F70E94FC090C94CD0E0C9493
:10011000000090E0FC01EB55FF4F24918F569F4F5C
:10012000FC018491882399F090E0880F991FFC01CD
:10013000E957FF4FA591B491FC01E358FF4F85911A
:1001400094918FB7F894EC91E22BEC938FBF0895C4
:100150008F929F92AF92BF92CF92DF92EF92FF92D7
:10016000CF936B0190910001891769F09F3F09F4CB
:100170006EC0CF91FF90EF90DF90CF90BF90AF9087
:100180009F908F900895ECE7F0E0C491C7FDF1CF08
:100190000E948900CC2319F0C23009F02BC1F12C48
:1001A000E12C60E072E18AE790E0A70196010E94ED
:1001B0008B0C49015A01DA01C9010197A109B10962
:1001C0008F3F9105A105B10509F00CF4F7C060E47B
:1001D00072E48FE090E0A70196010E948B0C215001
:1001E000310941095109C23009F0A9C082E02F3F0D
:1001F00031054105510509F00CF491C160E970ED3C
:1002000083E090E0A70196010E948B0C21503109F8
:100210004109510983E02F3F31054105510509F09E
:100220000CF47DC168E478EE81E090E0A7019601CE
:100230000E948B0C21503109410951092F3F310592
:100240004105510511F00CF098C084E068C180931D
:100250000001ECE7F0E0C491CF3F09F48ACFC13050
:1002600031F140F0C23009F444C0C7FD82CF0E9492
:10027000890092CF14BC15BC94B5926094BD95B51D
:10028000916095BD282F30E0F901EF56FF4FE491C2
:10029000F0E0EE0FFF1FE358FF4F45915491F90135
:1002A000EB55FF4FE491E093FF01C0E071CF109256
:1002B000800010928100909181009860909381005D
:1002C00090918100916090938100282F30E0F90196
:1002D000EF56FF4FE491F0E0EE0FFF1FE358FF4FA2
:1002E00045915491F901EB55FF4FE491E093FE01E4
:1002F0004FCF1092B0001092B1009091B000926078
:100300009093B0009091B10091609093B100282F2C
:1003100030E0F901EF56FF4FE491F0E0EE0FFF1FE0
:10032000E358FF4F459154915093FD014093FC01D8
:10033000F901EB55FF4FE491E093FB0129CF2F3FEB
:1003400031054105510509F00CF452C068E478EE1E
:1003500081E090E0A70196010E948B0C21503109A9
:1003600041095109CC2309F4AFC02F3F31054105A4
:10037000510511F00CF0B0C068CF64E274EF80E07A
:1003800090E0A70196010E948B0C21503109410990
:10039000510985E02F3F31054105510509F008F469
:1003A000BEC062E17AE780E090E0A70196010E947A
:1003B0008B0C21503109410951099CC09C0181E0FD
:1003C000C111ADC095B5987F892B85BD27BD8FEF35
:1003D0009FEFDC018093080290930902A0930A0228
:1003E000B0930B0280916E00826080936E00C1CE4C
:1003F00082E0E6CFF12CE12C60E072E18AE790E048
:10040000A70196010E948B0C215031094109510925
:1004100091E02115310581E0480751056CF068E451
:1004200078EE81E090E0A70196010E948B0C2150AC
:1004300031094109510993E0C13009F076C080913A
:100440008100887F892B80938100309389002093DD
:1004500088008FEF9FEFDC018093040290930502E8
:10046000A0930602B093070280916F008260809390
:100470006F007FCE2093B3008FEF9FEFDC0180935E
:10048000000290930102A0930202B09303028091B4
:1004900070008260809370006CCE84E02F3F310545
:1004A0004105510509F008F48DCF9AE0B594A79461
:1004B000979487949A95D1F7A50194012150310919
:1004C0004109510985E07ECF83E02F3F3105410589
:1004D000510509F00CF476CF62E17AE780E090E014
:1004E000A70196010E948B0C215031094109510945
:1004F000CC2399F286E02F3F31054105510579F073
:1005000070F08AE0B594A794979487948A95D1F770
:10051000A5019401215031094109510987E09091C9
:10052000B100987F892B8093B100C13009F48DCF41
:10053000C23009F49FCFC1111CCE48CF90E0FC011E
:10054000E859FF4F2491FC01EB55FF4F3491FC011A
:10055000EF56FF4FE491EE23C9F0222339F0233008
:1005600001F1A8F4213019F1223029F1F0E0EE0F69
:10057000FF1FE358FF4FA591B4918FB7F894EC910A
:10058000611126C030953E233C938FBF08952730DC
:10059000A9F02830C9F0243049F7809180008F7D80
:1005A00003C0809180008F7780938000DFCF84B577
:1005B0008F7784BDDBCF84B58F7DFBCF8091B0007A
:1005C0008F778093B000D2CF8091B0008F7DF9CF2C
:1005D0003E2BDACF3FB7F8948091F7019091F80164
:1005E000A091F901B091FA0126B5A89B05C02F3F53
:1005F00019F00196A11DB11D3FBFBA2FA92F982F49
:100600008827BC01CD01620F711D811D911D42E043
:10061000660F771F881F991F4A95D1F708958F920B
:100620009F92AF92BF92CF92DF92EF92FF924B01D7
:100630005C010E94EA026B017C010E94EA026C19D3
:100640007D098E099F09683E734081059105A8F3D5
:1006500021E0821A9108A108B10888EEC80E83E053
:10066000D81EE11CF11C81149104A104B10429F7E6
:10067000FF90EF90DF90CF90BF90AF909F908F90C2
:10068000089508950895AF92BF92CF92DF92EF92AE
:10069000FF920F931F93CF93DF936C017B018B012C
:1006A000040F151FEB015E01AE18BF08C017D1077C
:1006B00059F06991D601ED91FC910190F081E02D06
:1006C000C6010995892B79F7C501DF91CF911F915B
:1006D0000F91FF90EF90DF90CF90BF90AF90089573
:1006E000FC01538D448D252F30E0842F90E0821B38
:1006F000930B541710F0CF96089501970895FC01BD
:10070000918D828D981761F0A28DAE0FBF2FB11D14
:100710005D968C91928D9F5F9F73928F90E008956C
:100720008FEF9FEF0895FC01918D828D981731F026
:10073000828DE80FF11D858D90E008958FEF9FEF7A
:100740000895FC01918D228D892F90E0805C9F4F50
:10075000821B91098F73992708958CE592E00E947E
:10076000A10321E0892B09F420E0822F089580E085
:1007700090E0892B29F00E94AD0381110C940000B8
:100780000895FC01A48DA80FB92FB11DA35ABF4F26
:100790002C91848D90E001968F739927848FA68980
:1007A000B7892C93A089B1898C91837080648C93D4
:1007B000938D848D981306C00288F389E02D808183
:1007C0008F7D80830895EF92FF920F931F93CF93B5
:1007D000DF93EC0181E0888F9B8D8C8D98131AC07C
:1007E000E889F989808185FF15C09FB7F894EE8963
:1007F000FF896083E889F9898081837080648083C0
:100800009FBF81E090E0DF91CF911F910F91FF900A
:10081000EF900895F62E0B8D10E00F5F1F4F0F73B2
:100820001127E02E8C8D8E110CC00FB607FCFACF6D
:10083000E889F989808185FFF5CFCE010E94C10347
:10084000F1CFEB8DEC0FFD2FF11DE35AFF4FF0823E
:100850009FB7F8940B8FEA89FB8980818062CFCFA4
:10086000CF93DF93EC01888D8823B9F0AA89BB89E7
:10087000E889F9898C9185FD03C0808186FD0DC0D2
:100880000FB607FCF7CF8C9185FFF2CF808185FFF3
:10089000EDCFCE010E94C103E9CFDF91CF91089542
:1008A00008952091C701260F3327331F21323105C8
:1008B000ECF420913202FC0190E080E0243069F0F9
:1008C00082E00895A091C7012191AC0149555E4F86
:1008D000A40FB52FB11D2C930196861798F3809124
:1008E000C701680F6093C70180E0089581E0089513
:1008F0001092320281E08093310210920C0261E08A
:1009000082E10E949E0261E083E10E949E02E9EB87
:10091000F0E080818E7F808380818D7F808388E47A
:100920008093B80085E48093BC000895CF93DF9353
:1009300091E09093A6018823B9F0C091B800D091BE
:10094000BA008091BC008A7B8093BC0060E082E1A9
:100950000E949E0260E083E10E949E020E94780451
:10096000D093BA00C093B800DF91CF910895CF9291
:10097000DF92EF92FF920F931F93CF93DF93D0916B
:100980005B0281E0D13208F09CC0C0915A020E9403
:10099000EA026B017C018091320281116CC082E01D
:1009A0008093320281E0809331028FEF8093300296
:1009B00010922F02D0932E02AAE3B2E0EEE0F2E012
:1009C00080E0D8138DC010920D0280910D02CC0FE3
:1009D000C82BC0930D0280910C02813009F084C0B5
:1009E00010920C020E94EA026B017C0180910D02C0
:1009F0008093BB008091340290913502A091360221
:100A0000B0913702892B8A2B8B2BA1F00E94EA022E
:100A10000091340210913502209136023091370254
:100A20006C197D098E099F090617170728073907D2
:100A300008F442C08091BC0083FDD8CF85EC809340
:100A4000BC000E94EA026B017C018091320282307C
:100A500009F44CC0809130028F3F09F469C0809145
:100A60003002803209F466C080913002803309F48C
:100A700063C084E026C08091340290913502A09139
:100A80003602B0913702892B8A2B8B2B09F483CF46
:100A90000E94EA0200913402109135022091360240
:100AA000309137026C197D098E099F0906171707C7
:100AB0002807390708F06FCF809133020E9496040F
:100AC00085E01092390210925B0210923802DF9199
:100AD000CF911F910F91FF90EF90DF90CF900895ED
:100AE0009D9191938F5F6DCF85EEA9CF8091340258
:100AF00090913502A0913602B0913702892B8A2B52
:100B00008B2B09F4A2CF0E94EA02009134021091CB
:100B1000350220913602309137026C197D098E0919
:100B20009F09061717072807390708F08ECFC4CF8B
:100B300080E0C7CF82E0C5CF83E0C3CF0895E091C6
:100B4000EF018091EE01E81730F4F0E0EA57FE4F34
:100B5000808190E008958FEF9FEF08959091EF01CD
:100B60008091EE012FEF3FEF981748F4E92FF0E066
:100B7000EA57FE4F208130E09F5F9093EF01C9015B
:100B800008958091EE019091EF01891B990B0895D2
:100B9000CF92DF92EF92FF920F931F93CF93DF9349
:100BA0007C01CB018A0120913802222389F0EB01DC
:100BB0006B01C40ED51ECC15DD0569F06991D70116
:100BC000ED91FC910190F081E02DC7010995F3CFE3
:100BD000642F0E945104C801DF91CF911F910F91A2
:100BE000FF90EF90DF90CF900895CF93DF931F9207
:100BF000CDB7DEB76983209138022223F9F0209126
:100C00005B02203258F021E030E0FC013383228384
:100C100090E080E00F90DF91CF91089580913902AC
:100C2000E82FF0E0E65CFD4F998190838F5F809321
:100C3000390280935B0281E090E0ECCF61E0CE016D
:100C400001960E945104F7CFCF93DF93EB01FC0193
:100C5000828591E09093380280935A021092390273
:100C600010925B02688189EF92E00E94F50565E0D1
:100C700070E080E090E00E940F03698189EF92E0CC
:100C80000E94F50565E070E080E090E00E940F03AF
:100C9000DF91CF910C94B704CF93DF9300D01F92D4
:100CA000CDB7DEB7882391F080EC1B8290E8998362
:100CB0008A83BE016F5F7F4F8BE093E00E94240622
:100CC0000F900F900F90DF91CF91089580E8EDCFB6
:100CD000CF93DF9300D01F92CDB7DEB71B8290E891
:100CE00099838A83BE016F5F7F4F8BE093E00E9400
:100CF00024060F900F900F90DF91CF91089581E01F
:100D00000E9468068BE39FE10197F1F70895CF9366
:100D1000DF9300D01F92CDB7DEB71B8220E429837A
:100D20006A83BE016F5F7F4F0E94240681E090E0DE
:100D30000F900F900F90DF91CF910895CF93C62F12
:100D40009091160321E02093380290935A0210925A
:100D5000390210925B02682F89EF92E00E94F5053C
:100D60006C2F89EF92E00E94F505CF910C94B704A7
:100D700090E080E00895FC0101900020E9F73197B0
:100D8000AF01481B590BBC018BE093E00C9443036B
:100D9000CF93DF93EC0188819981009711F00E9435
:100DA0006E0D198218821D821C821B821A82DF91AD
:100DB000CF9108950F931F93CF93DF93EC01888118
:100DC0009981009759F02A813B812617370730F027
:100DD00081E0DF91CF911F910F9108958B016F5F9B
:100DE0007F4F0E94F70D009759F0998388831B83EA
:100DF0000A832C813D81232B59F7FC011082E8CF17
:100E000080E0E7CFEF92FF920F931F93CF93DF9392
:100E1000EC017B01198218821B821A821D821C82BE
:100E2000FB0101900020E9F731978F01061B170B9A
:100E3000B8010E94DA06811109C0CE01DF91CF917D
:100E40001F910F91FF90EF900C94C8061D830C83A7
:100E5000B70188819981DF91CF911F910F91FF9008
:100E6000EF900C94C60E85ED8093BC008091340207
:100E700090913502A0913602B09137020796A11DDC
:100E8000B11D23E0B695A795979587952A95D1F73B
:100E90002091BC0024FD03C01092320208954091BD
:100EA0003402509135026091360270913702452B21
:100EB000462B472B69F30097A105B10541F02AE2C3
:100EC0002A95F1F700C00197A109B109E1CF8091FE
:100ED00033020C9496041F920F920FB60F921124B6
:100EE0002F933F938F939F93AF93BF938091F30181
:100EF0009091F401A091F501B091F6013091F201C9
:100F000023E0230F2D3758F50196A11DB11D209325
:100F1000F2018093F3019093F401A093F501B09353
:100F2000F6018091F7019091F801A091F901B0913B
:100F3000FA010196A11DB11D8093F7019093F8016C
:100F4000A093F901B093FA01BF91AF919F918F9156
:100F50003F912F910F900FBE0F901F90189526E88C
:100F6000230F0296A11DB11DD2CF1F920F920FB673
:100F70000F9211242F933F934F935F936F937F931F
:100F80008F939F93AF93BF93EF93FF938091000252
:100F900090910102A0910202B0910302892B8A2B49
:100FA0008B2BD1F19091FB01E091FC01F091FD01BF
:100FB0008081892780838091000290910102A09115
:100FC0000202B0910302181619061A061B069CF4B9
:100FD0008091000290910102A0910202B09103025F
:100FE0000197A109B1098093000290930102A09397
:100FF0000202B0930302FF91EF91BF91AF919F91D5
:101000008F917F916F915F914F913F912F910F90B1
:101010000FBE0F901F90189580910001ECE7F0E053
:10102000E4919FEF90930001E13051F030F0E23015
:1010300069F060E00E949E02DECF10926E00F9CF50
:1010400090916F009D7F90936F00F3CF909170000F
:101050009D7F9093700091E09093B0009091B100CB
:10106000987F94609093B1001092B300E2CF1F92EA
:101070000F920FB60F9211242F933F934F935F93CC
:101080006F937F938F939F93AF93BF93EF93FF9350
:101090008CE592E00E94C103FF91EF91BF91AF9167
:1010A0009F918F917F916F915F914F913F912F9180
:1010B0000F900FBE0F901F9018951F920F920FB6B2
:1010C0000F9211242F938F939F93EF93FF93E091AF
:1010D0006C02F0916D028081E0917202F0917302D6
:1010E00082FD1BC09081809175028F5F8F7320916C
:1010F0007602821741F0E0917502F0E0E45AFD4F6C
:10110000958F80937502FF91EF919F918F912F9111
:101110000F900FBE0F901F9018958081F4CF1F92F3
:101120000F920FB60F9211242F933F934F935F931B
:101130006F937F938F939F93AF93BF93EF93FF939F
:101140008091B900887F803609F44AC0F0F5883272
:1011500009F4A7C018F5803109F49BC0B8F48823BE
:1011600009F4F9C0883009F494C0FF91EF91BF9160
:10117000AF919F918F917F916F915F914F913F912F
:101180002F910F900FBE0F901F901895883109F482
:1011900088C0803251F78093300214C0803409F443
:1011A0009DC040F48033B9F38833F9F68093300260
:1011B00085ECB0C0803509F485C0883509F496C047
:1011C000883499F60E943307D0CF883909F48CC04F
:1011D00038F5883729F050F4883611F0803729F631
:1011E00083E0809332021092E90157C0883809F4F5
:1011F0007BC0803919F0803809F0B7CF8091E901C0
:10120000803208F071C0E091E90181E08E0F809397
:10121000E9018091BB00F0E0E753FE4F80833DC0C1
:10122000803B39F0E0F4803A09F479C0883A09F05B
:101230009CCF84E0809332021092C8011092C701C3
:10124000E091EC01F091ED0109958091C7018111C8
:101250000FC081E08093C7011092A70109C0803CB4
:1012600009F4A6CF883C09F4A3CF883B09F07DCFD1
:10127000E091C80181E08E0F8093C801F0E0E9554C
:10128000FE4F80818093BB009091C8018091C7017F
:1012900029C080910D028093BB0085EC8093BC0037
:1012A00064CF90912F0280912E02981758F5E0910B
:1012B0002F0281E08E0F80932F02F0E0E25FFD4F5E
:1012C0008081E9CFE0912F0281E08E0F80932F0281
:1012D0008091BB00F0E0E25FFD4F808390912F0290
:1012E00080912E029817C8F285E8D8CFE0912F029E
:1012F00081E08E0F80932F028091BB00F0E0E25FCF
:10130000FD4F80838091310281115CCF81E0809319
:101310000C0284EA8093BC001092320226CF85EC46
:101320008093BC00109232028091E901803230F447
:10133000E091E901F0E0E753FE4F10826091E9018E
:1013400070E0E091EA01F091EB0189EC91E0099500
:101350001092E9010ACF1092300234CFECE5F2E0AE
:101360001382128288EE93E0A0E0B0E0848395833C
:10137000A683B7832BE031E03183208325EC30E076
:101380003587248724EC30E03787268720EC30E04F
:10139000318B208B21EC30E0338B228B22EC30E040
:1013A000358B248B26EC30E0378B268B118E128EFA
:1013B000138E148EE9EFF2E01382128284839583F8
:1013C000A683B7838DE191E091838083EBE0F3E026
:1013D000138212828FE291E0918380838EE3828771
:1013E00080E6838780E1848782E0858766E571E017
:1013F00085E093E00C940207CF93DF9300D000D0F8
:1014000000D0CDB7DEB7789484B5826084BD84B552
:10141000816084BD85B5826085BD85B5816085BDEF
:1014200080916E00816080936E00109281008091A7
:10143000810082608093810080918100816080932F
:101440008100809180008160809380008091B10054
:1014500084608093B1008091B00081608093B0007F
:1014600080917A00846080937A0080917A00826013
:1014700080937A0080917A00816080937A008091D5
:101480007A00806880937A001092C100E0916C022B
:10149000F0916D0282E08083E0916802F091690230
:1014A0001082E0916A02F0916B028FEC80831092BF
:1014B0007402E0917002F091710286E08083E09105
:1014C0006E02F0916F02808180618083E0916E02F4
:1014D000F0916F02808188608083E0916E02F091CC
:1014E0006F02808180688083E0916E02F0916F02CC
:1014F00080818F7D80838DE00E9489008CE00E9436
:1015000089008BE00E9489001092EF011092EE0199
:101510001092390210925B020E94780481E493E0F9
:101520009093ED018093EC0182E493E09093EB01C2
:101530008093EA0110920F0380911803823018F013
:1015400098E090930F03809313031092140362E3C7
:1015500070E080E090E00E940F0380910F038062B2
:101560000E94680665E070E080E090E00E940F0352
:1015700080910F0380620E94680665E070E080E061
:1015800090E00E940F0380910F0380620E94680622
:1015900084E0809310038CE00E9468060E947F061E
:1015A00082E08093110386E00E94680660E080E09C
:1015B0000E949E066FEF88E00E949E0660E281E036
:1015C0000E949E066FEF84E00E949E066FEF83E00C
:1015D0000E949E066FEF82E00E949E066FEF84E0FD
:1015E0000E949E0660E083E00E949E0660E082E02A
:1015F0000E949E0680E00E944C0687E391E00E94D4
:10160000BB0660E08DE00E949E0260E08CE00E94DC
:101610009E0260E08BE00E949E0280E0E82E80E067
:10162000F82E8CE592E00E94A103181619060CF022
:1016300026C18CE592E00E947F038A3069F18D30EB
:1016400059F189831A820091090310910A030F5FEF
:101650001F4FB80185E093E00E94DA06882399F0D5
:1016600020910503309106038091090390910A03AC
:10167000BE016F5F7F4F820F931F0E94C60E1093B3
:101680000A03009309038091F0019091F101019602
:101690009093F1018093F0018091F0019091F1011C
:1016A0000C9709F0BECF66E471E0CE0101960E946E
:1016B0000207C0900503D0900603C114D10409F4B9
:1016C000A8C00091090310910A0301151105B9F092
:1016D0008D819E81080F191FB801CE0101960E94CD
:1016E000DA06882309F495C029813A818D819E818B
:1016F000B601820F931F0E94C60E1E830D834D817B
:101700005E8169817A818CE592E00E94430342E028
:1017100050E064E571E08CE592E00E94430389812A
:101720009A81009711F00E946E0D0E947F0680E062
:101730000E944C0687E591E00E94BB064091090398
:1017400050910A0360910503709106038BE093E0CA
:101750000E9443038091090390910A03892B09F4A5
:101760005DC06CE571E080910503909106030E94D5
:10177000BD0E892B09F052C081E00E944C0689E61B
:1017800091E00E94BB0661E08DE00E949E0260E055
:101790008CE00E949E0261E08BE00E949E026BE062
:1017A00070E082E30E94A80068EE73E080E090E0C1
:1017B0000E940F0360E08BE00E949E0260ED77E0E4
:1017C00080E090E00E940F030E947F0680E00E946C
:1017D0004C0687E391E00E94BB0670E060E085E084
:1017E00093E00E94DA06811130C085E093E00E9408
:1017F000C8061092F1011092F0018CE592E00E946F
:10180000A1031816190674F58CE592E00E947F0377
:10181000F4CFCE0101960E94C80671CF81E00E94EC
:101820004C0688E791E00E94BB0660E08DE00E94D4
:101830009E0261E08CE00E949E0261E08BE00E94CB
:101840009E026BE070E088EEADCF10920A0310921A
:10185000090366E571E080910503909106030E94FB
:10186000C60EC7CF60E08DE00E949E0260E08CE073
:101870000E949E0260E08BE00E949E02D2CEE114A4
:10188000F10409F4CECE0E94AD03882309F4C9CE39
:101890000E940000C6CE8091050390910603009738
:1018A00011F00C946E0D08952F923F924F925F921B
:1018B0006F927F928F929F92AF92BF92CF92DF9260
:1018C000EF92FF920F931F93CF93DF93CDB7DEB7C5
:1018D000CA1BDB0B0FB6F894DEBF0FBECDBF099459
:1018E0002A88398848885F846E847D848C849B84B0
:1018F000AA84B984C884DF80EE80FD800C811B81BE
:10190000AA81B981CE0FD11D0FB6F894DEBF0FBEEC
:10191000CDBFED010895052E97FB1EF400940E94A3
:10192000A20C57FD07D00E94AA0C07FC03D04EF46E
:101930000C94A20C50954095309521953F4F4F4FF8
:101940005F4F089590958095709561957F4F8F4F6B
:101950009F4F0895A1E21A2EAA1BBB1BFD010DC0CB
:10196000AA1FBB1FEE1FFF1FA217B307E407F5074F
:1019700020F0A21BB30BE40BF50B661F771F881F2B
:10198000991F1A9469F760957095809590959B01C1
:10199000AC01BD01CF010895EE0FFF1F0590F4913A
:1019A000E02D09940F931F93CF93DF93823091051D
:1019B00010F482E090E0E0911C03F0911D0330E010
:1019C00020E0B0E0A0E0309799F42115310509F44A
:1019D0004AC0281B390B24303105D8F58A819B81F8
:1019E0006115710589F1FB0193838283FE0111C0AA
:1019F000408151810281138148175907E0F048174F
:101A0000590799F4109761F012960C931297139658
:101A10001C933296CF01DF91CF911F910F910895C2
:101A200000931C0310931D03F4CF2115310551F0D1
:101A30004217530738F0A901DB019A01BD01DF010C
:101A4000F801C1CFEF01F9CF90931D0380931C03E0
:101A5000CDCFFE01E20FF31F819391932250310904
:101A600039832883D7CF20911A0330911B03232B6E
:101A700041F4209103013091040130931B03209322
:101A80001A0320910101309102012115310541F421
:101A90002DB73EB74091050150910601241B350B2F
:101AA000E0911A03F0911B03E217F307A0F42E1B39
:101AB0003F0B2817390778F0AC014E5F5F4F2417B2
:101AC000350748F04E0F5F1F50931B0340931A03D6
:101AD000819391939FCFF0E0E0E09CCFCF93DF9391
:101AE0000097E9F0FC01329713821282A0911C0347
:101AF000B0911D03ED0130E020E01097A1F42081AA
:101B00003181820F931F20911A0330911B032817F4
:101B1000390709F061C0F0931B03E0931A03DF91CA
:101B2000CF910895EA01CE17DF07E8F54A815B817E
:101B30009E0141155105B1F7E901FB83EA83499103
:101B40005991C40FD51FEC17FD0761F48081918175
:101B50000296840F951FE90199838883828193817E
:101B60009B838A83F0E0E0E012968D919C9113971D
:101B70000097B9F52D913C911197CD010296820FF6
:101B8000931F20911A0330911B032817390739F648
:101B9000309751F510921D0310921C03B0931B0354
:101BA000A0931A03BCCFD383C28340815181840F99
:101BB000951FC817D90761F44E5F5F4F88819981DF
:101BC000480F591F518340838A819B81938382836D
:101BD0002115310509F0B0CFF0931D03E0931C03EC
:101BE0009ECFFD01DC01C0CF13821282D7CFB0E0BF
:101BF000A0E0EDEFFDE00C94560C8C01009751F441
:101C0000CB010E94D20C8C01C801CDB7DEB7E0E158
:101C10000C94720CFC01E60FF71F9C012250310955
:101C2000E217F30708F49DC0D901CD91DC9111971B
:101C3000C617D70798F0C530D10530F3CE01049709
:101C40008617970708F3C61BD70B2297C193D1932A
:101C50006D937C93CF010E946E0DD6CF5B01AC1AC1
:101C6000BD0A4C018C0E9D1EA0911C03B0911D035A
:101C7000512C412CF12CE12C109731F580911A0355
:101C800090911B038815990509F05CC0461657060C
:101C900008F058C08091010190910201009741F431
:101CA0008DB79EB74091050150910601841B950B9D
:101CB000E817F90708F055C0F0931B03E0931A03E7
:101CC000F90171836083A0CF8D919C911197129639
:101CD0006C90129713967C901397A815B90559F537
:101CE0006C0142E0C40ED11CCA14DB0420F1AC012B
:101CF0004A195B09DA011296159780F062827382A5
:101D000051834083D9016D937C93E114F10471F008
:101D1000D7011396FC93EE93129776CF22968C0FF1
:101D20009D1FF90191838083F301EFCFF0931D0391
:101D3000E0931C0369CF4816590608F42C017D0175
:101D4000D3019ACFCB010E94D20C7C01009749F0BD
:101D5000AE01B8010E94B40EC8010E946E0D870149
:101D600053CF10E000E050CFFB01DC0102C0019036
:101D70000D9241505040D8F70895FB01DC018D9140
:101D8000019080190110D9F3990B0895FB01DC0132
:101D900001900D920020E1F7089510E0CEE5D0E02B
:101DA00004C0FE010E94CC0C2196CF35D107C9F7A3
:041DB000F894FFCFD5
:101DB400FF00001E03800000000000E303430370E3
:101DC400033004A1037F03930300000000F505C85A
:101DD40005B8069E05C105AE059F050000000087F5
:101DE400064303B80650045363616E2052464944C7
:101DF40020436172640049442052656365697665D5
:101E0400643A20000D0A0049443A2000414231322C
:101E14003334353637383941004163636573732091
:101E24004772616E74656400416363657373204433
:061E3400656E69656400A3
:00000001FF
